{
  "_format": "hh-sol-artifact-1",
  "contractName": "CTR",
  "sourceName": "contracts/myContract.sol",
  "abi": [
    {
      "inputs": [
        {
          "internalType": "uint256",
          "name": "_nbr",
          "type": "uint256"
        }
      ],
      "name": "increment",
      "outputs": [],
      "stateMutability": "nonpayable",
      "type": "function"
    },
    {
      "inputs": [],
      "name": "number",
      "outputs": [
        {
          "internalType": "uint256",
          "name": "",
          "type": "uint256"
        }
      ],
      "stateMutability": "view",
      "type": "function"
    }
  ],
  "bytecode": "0x608060405261153860005534801561001657600080fd5b506101c1806100266000396000f3fe608060405234801561001057600080fd5b50600436106100365760003560e01c80637cf5dab01461003b5780638381f58a14610057575b600080fd5b610055600480360381019061005091906100d1565b610075565b005b61005f610090565b60405161006c919061010d565b60405180910390f35b806000808282546100869190610157565b9250508190555050565b60005481565b600080fd5b6000819050919050565b6100ae8161009b565b81146100b957600080fd5b50565b6000813590506100cb816100a5565b92915050565b6000602082840312156100e7576100e6610096565b5b60006100f5848285016100bc565b91505092915050565b6101078161009b565b82525050565b600060208201905061012260008301846100fe565b92915050565b7f4e487b7100000000000000000000000000000000000000000000000000000000600052601160045260246000fd5b60006101628261009b565b915061016d8361009b565b925082820190508082111561018557610184610128565b5b9291505056fea2646970667358221220c667cce1dc316aaadf1306026ecf93e44aac51c1ce3d51ecfdf564ebf80a0cec64736f6c63430008130033",
  "linkReferences": {},
  "deployedLinkReferences": {}
}