{
  "_format": "hh-sol-artifact-1",
  "contractName": "CTR",
  "sourceName": "contracts/myContract.sol",
  "abi": [
    {
      "inputs": [],
      "stateMutability": "nonpayable",
      "type": "constructor"
    },
    {
      "inputs": [
        {
          "internalType": "address",
          "name": "_address",
          "type": "address"
        }
      ],
      "name": "changeOwnerShip",
      "outputs": [],
      "stateMutability": "nonpayable",
      "type": "function"
    },
    {
      "inputs": [
        {
          "internalType": "uint256",
          "name": "_nbr",
          "type": "uint256"
        }
      ],
      "name": "increment",
      "outputs": [],
      "stateMutability": "nonpayable",
      "type": "function"
    },
    {
      "inputs": [],
      "name": "number",
      "outputs": [
        {
          "internalType": "uint256",
          "name": "",
          "type": "uint256"
        }
      ],
      "stateMutability": "view",
      "type": "function"
    },
    {
      "inputs": [],
      "name": "owner",
      "outputs": [
        {
          "internalType": "address",
          "name": "",
          "type": "address"
        }
      ],
      "stateMutability": "view",
      "type": "function"
    }
  ],
  "bytecode": "0x608060405261153860005534801561001657600080fd5b5033600160006101000a81548173ffffffffffffffffffffffffffffffffffffffff021916908373ffffffffffffffffffffffffffffffffffffffff16021790555061043d806100676000396000f3fe608060405234801561001057600080fd5b506004361061004c5760003560e01c806302be8e4e146100515780637cf5dab01461006d5780638381f58a146100895780638da5cb5b146100a7575b600080fd5b61006b60048036038101906100669190610243565b6100c5565b005b610087600480360381019061008291906102a6565b610199565b005b6100916101b4565b60405161009e91906102e2565b60405180910390f35b6100af6101ba565b6040516100bc919061030c565b60405180910390f35b3373ffffffffffffffffffffffffffffffffffffffff16600160009054906101000a900473ffffffffffffffffffffffffffffffffffffffff1673ffffffffffffffffffffffffffffffffffffffff1614610155576040517f08c379a000000000000000000000000000000000000000000000000000000000815260040161014c90610384565b60405180910390fd5b80600160006101000a81548173ffffffffffffffffffffffffffffffffffffffff021916908373ffffffffffffffffffffffffffffffffffffffff16021790555050565b806000808282546101aa91906103d3565b9250508190555050565b60005481565b600160009054906101000a900473ffffffffffffffffffffffffffffffffffffffff1681565b600080fd5b600073ffffffffffffffffffffffffffffffffffffffff82169050919050565b6000610210826101e5565b9050919050565b61022081610205565b811461022b57600080fd5b50565b60008135905061023d81610217565b92915050565b600060208284031215610259576102586101e0565b5b60006102678482850161022e565b91505092915050565b6000819050919050565b61028381610270565b811461028e57600080fd5b50565b6000813590506102a08161027a565b92915050565b6000602082840312156102bc576102bb6101e0565b5b60006102ca84828501610291565b91505092915050565b6102dc81610270565b82525050565b60006020820190506102f760008301846102d3565b92915050565b61030681610205565b82525050565b600060208201905061032160008301846102fd565b92915050565b600082825260208201905092915050565b7f4e6f7420746865206f776e65722e000000000000000000000000000000000000600082015250565b600061036e600e83610327565b915061037982610338565b602082019050919050565b6000602082019050818103600083015261039d81610361565b9050919050565b7f4e487b7100000000000000000000000000000000000000000000000000000000600052601160045260246000fd5b60006103de82610270565b91506103e983610270565b9250828201905080821115610401576104006103a4565b5b9291505056fea26469706673582212203678a3270e7ef8153ff12ec96217cf0462d529262c1b5552cb2e08914607f1c864736f6c63430008130033",
  "linkReferences": {},
  "deployedLinkReferences": {}
}